:100000000C947A000C9499000C9499000C9499002B
:100010000C9499000C9499000C9499000C949900FC
:100020000C9499000C9499000C9499000C940C0178
:100030000C9499000C9499000C9499000C949900DC
:100040000C9499000C9499000C9499000C949900CC
:100050000C9499000C9499000C9499000C949900BC
:100060000C9499000C9499000C9499000C949900AC
:100070000C9499000C9499000C9443010C949900F1
:100080000C9499000C9499000C9499000C9499008C
:100090000C9499000C9499000C9499000C9499007C
:1000A0000C9499000C9499000C9499000C9499006C
:1000B0000C9499000C9455010C9499000C9499009F
:1000C0000C9499000C9499000C9499000C9499004C
:1000D0000C9499000C9499000C9499000C9499003C
:1000E0000C9499000C9499000C9499000C9499002C
:1000F0000C94990011241FBECFEFCDBFDFE7DEBF08
:1001000010E4A0E0B0E4EEE2F4E000E00BBF02C0D7
:1001100007900D92A230B107D9F720E4A2E0B0E435
:1001200001C01D92A330B207E1F70E94A0000C9419
:1001300015020C9400000E94F1010E94090208952A
:100140000E94C7010E94730180916000816090E06D
:1001500028ED24BF809360000E940402E0E5F0E0F7
:100160008081897F82608083789400E414E0C0E518
:10017000D0E080910040882309F446C0F8018085D2
:10018000807790E095958795959587959595879536
:100190009595879580930240809102408430F1F0DC
:1001A00028F4823069F0833091F004C08530E9F0A2
:1001B000863011F181E00E949B000E94810122C0E3
:1001C000809102400E949B000E948A011BC0809186
:1001D00002400E949B000E94940114C08091024042
:1001E0000E949B000E94A1010DC0809102400E94CC
:1001F0009B000E94AE0106C0809102400E949B00BD
:100200000E94BA011092004088818160888388959D
:1002100088818E7F8883ADCF1F920F920FB60F9289
:1002200011240BB60F922F933F934F935F936F93CD
:100230007F938F939F93AF93BF93EF93FF930E940E
:100240000F02E0E0FAE081E090E080A391A380E17A
:10025000838710920040E0E2F4E082898360828B21
:10026000FF91EF91BF91AF919F918F917F916F918E
:100270005F914F913F912F910F900BBE0F900FBE4A
:100280000F901F9018951F920F920FB60F92112486
:100290008F9380E78093490481E0809300408F91A1
:1002A0000F900FBE0F901F9018951F920F920FB6D0
:1002B0000F9211240BB60F928F93EF93FF93E0E20E
:1002C000F4E084E0818781E08093004082898C7F24
:1002D000828BFF91EF918F910F900BBE0F900FBE0D
:1002E0000F901F901895E0E0F7E0128295E8908B50
:1002F0008FE7848B908F848F90A384A381E0808389
:100300000895E0E0F7E0128A138A128E138E12A28B
:1003100013A20895E0E0F7E0128A80E2838B128E48
:10032000838F12A283A30895E0E0F7E085EB828B30
:1003300080E1838B95ED928F838F95EF92A383A3BA
:100340000895E0E0F7E089EA828B84E1838B99EC01
:10035000928F838F99EE92A383A30895E0E0F7E054
:10036000128A80E2838B81EF828F80E1838F12A2D9
:1003700013A20895E0E0F7E085E1828B80E2838BB1
:10038000128E838F81EF82A386E183A30895E0E438
:10039000F4E088E8838780E78487E0E6F4E084E09F
:1003A00083879EEB94879EE090938C04E0E2F4E0D8
:1003B00098E091839583828383E0828B0895E0E0C7
:1003C000F2E081E082AF9BE4908BE0E0FAE081878D
:1003D00081E090E080A791A780E1828781E8808317
:1003E000089590E08093280A9093290A0895E0E404
:1003F000FAE081E0838380E1818380E887A380E461
:1004000081A78CE8808308950E94DF010E94F70194
:100410000895E0E4FAE08081816080830895E0E45B
:0E042000FAE080818E7F80830895F894FFCFEC
:02042E000100CB
:00000001FF
